S00D000062696E6172792E73313962
S385100000004849535745444744010000031000000000004318100000200000000001010000DFF804D000F012B800000420FEE7704770477047704770477047704770477047704770477047FFF7F1BF000010B5164A164C174900239818884203D2185998500433F8E7164817494FF000028842B8BF40F8042BFADB0F4A0F4C104900239818AE
S38510000080884203D2185998500433F8E7094A4FF0E023C3F8082D00F017F802F0A7FDBDE8104000F0FDBF00BF0001002078420010C0010020000000200001001000010020C0010020C01400207047000000000000000000000000000000000000000000000000000000000000000000000000000000000000000000000000000000000000B8
S385100001000000042021000010330000103500001037000010390000103B000010000000000000000000000000000000003D0000103F0000100000000041000010430000104700001047000010470000104700001047000010470000104700001047000010470000104700001047000010470000104700001047000010470000104700001001
S38510000180470000104700001047000010470000104700001047000010470000104700001047000010470000104700001047000010470000104700001047000010470000104700001047000010470000104700001047000010470000104700001047000010470000104700001047000010470000104700001047000010470000104700001009
S385100002007FB54FF46123049303238DF8083000238DF80C308DF80A308DF80D308DF80B30124B02220593059B8DF80920009302AB0ECB012001F0A0FA014610B14FF0FF3010E0012001F0E6FB0028F7D101207F2101F004FC0120014601F0DCFB003818BF6FF0000007B05DF804FB00BF0102001010B5441E14F8011F19B1012001F010FAF3
S38510000280F8E710BD70B5104E0C24B0FBF1F501FB1500305C1855013C2846002DF5D1202A1CBF01201A70021B21461A4401340D2C04D01E5D151905F8016CF7E71844C1F10C020023835470BD843E001008B5012001F0FEFA003818BF6FF0000008BD00BF10B583786BB9C278C52A01D0352A08D1037913B94479FF2C08D0C52A0CD0352A55
S385100003000AD000230B704FF0FF3010BD8479FF2CF3D101220A700BE0002BF2D04279FF2AEFD1DB438279DBB29A42EAD102230B70002010BD07B500238DF800308DF801008DF804306846FF2302218DF805308DF8063000F0EBFA18B901A8032100F0E6FA03B05DF804FBF8B51646D1F8082240F205239A4205460C4600F28D8091F81032C7
S3851000038083B93360D1F8082281F81032C1F80C2281F8083281F8093281F80A3281F80B3200F0D3FAD4F8083223449D70D4F808320133C4F80832D4F80C320133C4F80C32534B1A6801321A6094F81032052B00F29780DFE803F003121F3C956A00F06AFA00F0F0F925B9012384F81032657087E0052384F81032F02381E000F05BFA00F05D
S38510000400E1F9C52D56D0352D54D0052384F81032F12374E000F04EFA00F0D4F9D4F80832042B6DD923796279A07982EA0301884261D103EB022333606279FF2A02D1002333605FE0B3F5007F5CD9F42354E000F031FA00F0B7F93368D4F8082206339A424ED3234613F8042F6179E01D02EB012189B2284E00220844834204D013F8017BCD
S385100004807A40B25CF8E72144CB7993422ED184F80752002512E0052381F81032D1F80C320133C1F80C32F7234B7000F003FA00F089F925E0022384F8103221E0042384F81032657000F09CF9D4F8083284F81052C4F80C3284F8085284F8095284F80A5284F80B5200F031FA0120F8BD052384F81032F52303E0F223052284F8102263709A
S385100005000020F8BD3568002DD8D00323D3E700BFC0010020953E001010B58178C378053101EB0321044689B200F000FA04F20520012100F0FBF9002010BD84B010B5ADF5047D86AC84E80F0000238DF805309DF81832012B9DF8193206D83B4A117919B913B90123137112E08BB1384BD3F80822C3F80C22002283F8082283F8092283F8C4
S385100005800A2283F80B2283F8102200F0DEF99DF818323BB1012B51D186A80DF10501FFF79FFE4BE0ADF806309DF81932002B45D19DF81B32352B41D186A80DF10501FFF78FFE9DF80530013B012B35D93A20FFF7B1FE9DF81C329DF81D120DF21F2003EB012189B20DF10D020DF1060300F068F820BBBDF806203A23110A8DF80930D3B24B
S385100006008DF80A308DF80B104B4011498DF80C308DF8080003460332824207D002AC0444A47801306340DBB2CB5CF5E702A88DF80D32FFF771FF01E000F031F90DF5047DBDE8104004B07047C00100204C020020953E0010427808B590F810326AB9052B0DD03BB3F6234370052380F8103200F021F9BDE8084000F0A5B8052B1AD1F62AD3
S3851000068008BF0D4B4FF0000208BF1A600B4B0270D3F8081283F81022C3F80C1283F8082283F8092283F80A2283F80B22BDE8084000F04BB908BD00BFC00100204C020020F8B5067814468B2E1D46477806D1302F18BF167004D100F020FA05E0FF2313707F23637002232B800020F8BD08B5002001F0DEFB002001F0AFFA034B1B680BB15E
S385100007000248984708BD00BF600400204C0200202DE9F041ADF5067D82AF0023C4F20203FB60FB68DB687B607B680020194601F095F97B6803F01803002B3ED038E0FB681B6AFB72FB7A184640F24C21C2F2000140F2C812C2F20002FFF705FE0346002B26D040F24C23C2F2000300221A7040F24C23C2F200031A684FF0000890465A68EC
S38510000780002616469A6800251546DA6800241446694603F1100240F20223084611461A4603F048F8404631462A462346FFF7C5FE01F0E2F90346002BC1D100BF1037BD46BDE8F0810C4B5B681A6922F0800242F480421A6101221A60084A91684FF47A72B1FBF2F25043586019691A6900200A4342F080021A61704718020020CC01002046
S3851000080008B5002001F028FA002008BD10B51D4C86B0204602F038FA201D02F047FA04F1080002F045FA0023012103938DF81230A36802918DF811104FF47A71B3FBF1F30222B3F1011F8DF8102088BF042223FA02F301930C4B4FF0000001A988BF8DF810202273059301F081FB30B901F0E8FA003818BF6FF0000001E04FF0FF3006B0A6
S3851000088010BD00BFCC010020ED06001011B10160002070474FF0FF30704700207047044B1A7812B10020187070474FF0FF307047040100203220704710B54FF4E13386B0049303238DF8083002238DF80930164B00200593059B8DF80C0000938DF80A008DF80D008DF80B0002AB0ECB00F044FF014610B14FF0FF3013E001F08BF80446FD
S385100009000028F7D17F2101F0A9F82046182101F0B7F82046012101F07DF8003818BF6FF0000006B010BD00BF1107001070B506460D460024A3B29D424FF0000004D0315D00F0AEFE0134F5E770BD002001F01CB908B5002000F0BCFF003818BF6FF0000008BD00BF80B584B000AF3B464FF6F070C1F20F001946102201F020FE0346002B2F
S3851000098001D000230EE03B46184640F20611C2F20001102202F01CFF0346002B01D0002300E0012318461037BD4680BD80B5ADF5826D00AF3B1D18603B4619600023C7F80C3440F26840C2F2000002F0B7F93BE03B1D1A68D7F80C34D31AB3F5806F09D23B1D1B689AB2D7F80C349BB2D31AA7F80A3403E04FF48063A7F80A34D7F80C345C
S38510000A0003F1805303F5A043B7F80A2407F10801184601F0D3FD0346002B02D04FF0FF3321E0B7F80A34D7F80C241344C7F80C34B7F80A3407F1080240F26840C2F2000011461A4602F09AF93B1DD7F80C241B689A42BDD33B46186840F26841C2F2000102F00CFA0023184607F58267BD4680BD80B58CB000AF3B1D4FF6D070C1F20F00DA
S38510000A801946042201F09AFD0346002B02D04FF0FF333EE03B791A467B791B021A43BB791B041A43FB791B061343FB62FB6AB3F57B2F02D96FF06C032BE007F118034FF6E070C1F20F001946102201F077FD0346002B02D04FF0FF331BE007F10803F86A1946FFF763FFB862BB6A002B01D0BB6A0FE007F1180207F10803104619461022A0
S38510000B0002F066FE0346002B02D04FF0FF3300E0002318463037BD4680BD90B5ADF5015D8BB000AF07F128041C3C2060084607F1280124390A6007F12802283A136007F128031E3B02461A8007F128031C3B1B68002B0BD007F12803243B1B68002B05D007F12803283B1B68002B02D16FF003033AE207F128031C3B1B681A7807F1280352
S38510000B80243B1B681A7007F12803243B1B685A1C07F128031C3B1B6801331B780133DBB2137007F12803243B1B68023300221A7007F12803283B1B6803221A8007F128031C3B1B689B7807F5015101F127010B7007F128031C3B1B6803331B781A4607F128031C3B1B6804331B781B021A4307F128031C3B1B6805331B781B041A4307F1AC
S38510000C0028031C3B1B6806331B781B06134307F5015202F12002136007F128031C3B1B6807331B781A4607F128031C3B1B6808331B781B029BB213439BB207F5015101F11E010B8007F5015202F12002136803F1805303F5A04307F5015101F118010B6007F128031E3B1A8807F5015101F11E010B8809339A4210D107F5015303F11E03A0
S38510000C801A8807F5015101F118010B681A444FF6FF73C1F20F039A4209D907F12803243B1B680233FE221A706FF06C039CE107F5015202F127021378A52B3DD143F6C070C1F20000FFF7D4FA40F2DC13C2F2000300221A6007F5835303F10803143B1846FF214FF4805202F0F9FD07F16803143B4FF4A040C1F2000019464FF4805201F0F9
S38510000D005DFC07F5835202F10802143A07F16803143B104619464FF4805202F059FD0346002B07D04FF4A040C1F200004FF4792101F0F4FC002357E107F5015101F127010B78E12B40F0B18043F6C870C1F20000FFF78EFA40F2DC13C2F2000300221A6007F128031C3B1B6803331B781A4607F128031C3B1B6804331B781B021A4307F11D
S38510000D8028031C3B1B6805331B781B041A4307F128031C3B1B6806331B781B06134307F5015202F11402136007F16803243B07F5015101F1140108681946FFF7F7FD0346002B09D007F12803243B1B680233FF221A704FF0FF3307E107F128031C3B1B6803F1090207F16803243B18461146102202F0EEFC0346002B07D007F12803243BDD
S38510000E001B680233C1221A704DE007F5835303F10803143B1846FF214FF4805202F05EFD07F16803143B4FF47040C1F20F0019464FF4805201F0C2FB07F5835202F10802143A07F16803143B104619464FF4805202F0BEFC0346002B07D04FF47040C1F20F004FF4805101F059FC07F128031C3B1B6803334FF6D070C1F20F0019460422E4
S38510000E8001F0C8FB07F16803243B4FF6E070C1F20F001946102201F0BDFB40F2E013C2F2000301221A7000239EE040F2DC13C2F200031A6807F5015101F118010B689A4280F0898007F12803183B00221A60043300221A60043300221A60043300221A60043300221A60043300221A60043300221A60043300221A60043300221A6004334F
S38510000F0000221A60043300221A60043300221A60043300221A80023307F12803183B07F5015202F11802106810212B22FFF7AAF907F12803183B1846FFF79AF943F6D470C1F20000FFF794F907F128031C3B1B6803F1090207F5015101F11E010B8807F5015101F11801086811461A4601F052FB0346002B09D007F12803243B1B6802334D
S38510000F80FF221A704FF0FF332EE007F5015303F11E031A8807F5015101F118010B6813445A1E40F2DC13C2F200031A6007F128031C3B1B6803F1090207F5015101F11E010B8840F26840C2F2000011461A4601F0D5FE002308E007F12803243B1B680233FE221A706FF06C03184607F501572C37BD4690BD80B582B000AF04233B71002398
S385100010007B710223BB713B464FF46040C1F20F001946032201F0D2FA0346002B02D04FF0FF3327E03A463B1D10461946032202F0CFFB0346002B1CD04FF46040C1F20F004FF4805101F06AFB0346002B0ED13B1D4FF46040C1F20F001946032201F0DAFA0346002B05D04FF0FF3303E04FF0FF3300E0002318460837BD4680BD08B50220B5
S3851000108001F0B8FD054B01201A6822F0004222F450621A60BDE8084001F078BD0030004080B592B000AF012387F84730002001F0BBFD0346002B02D04FF0FF3309E107F1240300221A60043300221A60043300221A60043300221A60043300221A600433FFF78EF838643B6C002B01D03B6CF0E043F6D870C1F20000FFF7BAF807F13803FF
S38510001100184600F0EDF843F6FC70C1F20000FFF7AFF8BA6B07F1240310460A212022FFF7B1F807F124031846FFF7A2F844F21000C1F20000FFF79CF8BA6B3B1D1046194600F0FCF844F21400C1F20000FFF790F87A6907F1240310460A212022FFF792F807F124031846FFF783F844F21C00C1F20000FFF77DF8BA6907F1240310460A2104
S385100011802022FFF77FF807F124031846FFF770F844F22000C1F20000FFF76AF8FA6907F1240310460A212022FFF76CF807F124031846FFF75DF844F22400C1F20000FFF757F844F21000C1F20000FFF751F8FFF755FF00F0D9FFFFF70DFF97F84730042B25D0042B04DC012B07D0022B12D06FE0082B56D0FF2B6AD06AE0FFF7B3FB03465B
S38510001200002B03D0042387F8473061E0022387F847305DE0FFF72CFC0346002B03D0042387F8473054E0082387F8473050E04FF4A040C1F200004FF4792101F06FFA40F21613C2F2000300221A70FFF7DFFA38643B6C002B01D03B6C3BE040F26040C2F2000040F25561C1F20001FFF70FFB38643B6C002B01D03B6C2BE0FFF71DFB386445
S385100012803B6C002B01D03B6C23E000BF40F2E013C2F200031B78002BF8D0082387F8473016E001F09FFCFFF753FBFFF70FF800F013F90A4880F3088845F20103C1F20003FB63FB6B9847FF2387F8473000E000BF83E718464837BD4680BD000000500010074B1B681A691207FCD41A69D10702D51A69D206FCD51B6803600020704700BFE8
S38510001300180100200C4B1B681A691107FCD44FF400421A611A691207FCD418601A6912F00802FBD15A60186910F00800FBD140F601021A61704700BF180100202DE9F04F394D3A4BB0FBF5F4394E234493FBF6F906FB193648F6AC6A96FBFAFA03220AF1010A02FB0AFA334F4FEAAA0A07FB0A6640F2B55796FBF7F807FB186640F26D1C9A
S3851000138096FBFCFC0CF1010C02FB0CFC04279CFBF7FC6FF4B6724FF0640B02FB0C660BFB0AFA05224FF4C87B72430BFB09A9992709EB880902F59A7292FBF7F2E1444FF00C0892FBF8FCA9F59659E14408FB1C2C023257430CF1010CC1F804C06FF0040C97FBFCF73E4407227B3602338E6093FBF2F605FB140002FB16334FF46162CB6041
S3851000140090FBF2F302FB13020B613C2392FBF3F24A6190FBF3F203FB12000023C1F800908861CB61BDE8F08F80510100B8BA2500B13A02005471FFFF84B02DE9F04107AC84E80E0040F2B17291420B46089E099F2BDDA6F10E050C226FF00B0895FBF2F4023E95FBF8F502FB056540F26F1601F5965C7543A44440F2B55101FB0CFC03F5E0
S38510001480995304210B4495FBF2F21C446425032394FBF5F45C439CFBF1FC624494FBF1F1511A0B4B39440B4400E000230C9A3C214A430B994FF4616404FB01210D9ABDE8F0410A44034904B001FB0323036070472945DAFF805101004FF08042536843F4C0535360044B516811F4C05F01D0013BF9D10020704700BFA18601002DE9F34170
S385100015008DF807009DF80730012B79D809B941487DE0414E3368002B74D091F800C0BCF1030F71D84C78022C6ED802D08B78012B6AD8CF78012F67D80A79012A64D812B94B79012B60D88868344BA0F596659D425AD89DF80730182505FB03639B685D68AD07FCD12E4D022CB5FBF0F500FB05F81D612B4DC8EB05054FEAC515B5FBF0F08C
S3851000158000F07F005861186820F4406040EA8C2002D120F010040AE020F0200040EA441444F01004887824F0400444EA801424F4805040EA073020F4005040EA423020F00F0040F00100186022B1DA69487942EA4002DA619DF80730C3B9CB68002B96D09DF80730CA68182101FB03663021706801F0E8FA0B4B002814BF1846002006E0C4
S38510001600094804E0094802E0094800E0002002B0BDE8F08103000070E4010020500B0E00CCBF19000500007104000070080000700200007082B08DF807009DF80730012B16D8B9B19DF807000F4B182202FB0030806888B19DF8070002FB00339B685A68D2060BD41B6A13F4807009D10B7008E0064806E0064804E0064802E0064800E029
S38510001680064802B0704700BFE4010020040000700300007005000070070000700900007082B08DF807009DF80730012B18D89DF807000F4B182202FB0030806890B19DF8070002FB00339B685A6810060CD419625A685206FCD5586810F00100F8D104E0044802E0044800E0044802B0704700BFE401002004000070050000700700007053
S3851000170082B08DF807009DF80730012B11D891B19DF807000A4B182202FB0030806860B19DF8070002FB00339B6800205B680B6004E0044802E0044800E0044802B07047E401002004000070030000700500007082B08DF807009DF80730064A182000FB03239B681A680A431A601A681142FCD102B07047E401002084B073B507AC84E8A6
S385100017800E003F4B8DF807001A68DAB93D4A9A6002F580521A624FF080425168104641F4C051516041684FF0804211F4C05FF9D1516A41F400715162516A41F48061516201221A609DF80720012A52D89DF80710182202FB01319DF80700896800F0FF0588B1012D45D19DF807509DF8200002FB05330F225A6001280CBF4FF470404FF4F1
S3851000180040500A220EE09DF807509DF8200002FB05330E225A6001280CBF4FF470604FF440700922012606FA02F24FF080435D6A25EA02025A625A6A22F001025A6203F500431D68C24302EA05001860986E02409A6600238B60CB609DF807002146FFF74DFE4FF4407104469DF80700FFF770FF00E0054C204602B0BDE8704004B0704740
S38510001880E4010020000002400400007007B58DF807009DF80730012B0DD89DF80730094A182000FB03239B683BB19DF80700FFF74FFF002002E0044800E0044803B05DF804FB00BFE4010020040000700500007073B58DF807009DF80730012B34D81E4C9DF80730182505FB03439B6826466BB39DF807004FF44071FFF72AFF9DF8073004
S38510001900002205FB0344A3689A609DF8073003F0FF021BB1012A1BD10A2200E00922012000FA02F24FF08043596A00200A435A6203F500431A6842F470621A609A6E42F470629A66306004E0044802E0044800E0044802B070BD00BFE401002004000070050000700200007007B58DF807009DF807300A461BB19DF80730012B12D19DF805
S3851000198007000C4B182101FB0030806860B16AB19DF8070001FB00333021586801F0C4F8002004E0044802E0044800E0044803B05DF804FBE401002002000070010000710300007007B58DF807009DF807301BB19DF80730012B10D19DF807100A4B182202FB0131896851B19DF8071002FB0133586801F0ACF8002002E0044800E00448A2
S38510001A0003B05DF804FB00BFE4010020020000700100007107B58DF807009DF807301BB19DF80730012B10D101290A4B9DF807104FF0180202FB0133586802D101F098F801E001F0A3F8002000E0034803B05DF804FB00BFE40100200200007082B08DF807009DF80730054A182000FB03239B68DA6822EA0101D96002B07047E4010020FE
S38510001A8082B08DF807009DF80730074A182000FB03239B68DA6822EA0102DA609A681143996002B0704700BFE401002082B08DF807009DF80730044A182101FB0323586802B001F071B800BFE401002013B502AC04E90C00009B01600361019B4361002002B010BD13B58DF807009DF807300B4A182000FB03230A489B68B0FBF1F2C2F3FB
S38510001B000B0401FB1202D201B2FBF1F101F07F0100201C61596102B010BD00BFE4010020CCBF190037B58DF80700114A9DF80730182101FB03239B6818695D69C0F30B0001F0D2FF044605F07F0001F0CDFF4FF0705102F021F80146204601F015FF0146044802F0CDF802F067F903B030BD00BFE401002060FECD49024B9B685868C0F3EC
S38510001B8003207047E401002082B08DF807009DF807004FF4007102B0FFF7DABD43689B06FCD4006AC0B2704743685B06FCD40162704700BF0B4B10B503EBC003197A01290CD15A7A012A0BD081404FF08042546A002044EA01415162187210BD024810BD024810BD1802002008000070040000794FF08042536843F4FC635360044B51687B
S38510001C0011F4FC6F01D0013BF9D10020704700BFA1860100052810D80B4B03EBC000037A012B0CD1427A012A0BD04268116941F08001116143720020704704487047044870470448704700BF1802002002000070010000790400007905280DD8084B03EBC0031A7A012A09D15A680020116921F08001116158727047024870470248704717
S38510001C8018020020020000700100007905280AD8084B03EBC000037A3BB141B1436800201B680B60704704487047044870470448704700BF1802002002000070010000790300007005283BD8234B03EBC000037A012B37D1437A012B36D0002A36D00129436812D002D302291FD031E01278242A30D802F00700196902F00802120221F409
S38510001D009C7142EAC0020A4317E0517B072921D8032904D15868926890421BD39A601A6922F007021143196108E01278012A11D8196921F0400141EA82121A61002070470648704706487047064870470648704706487047064870471802002002000070010000790400007903000070090000700400007008B50A4605281FD8DFE800F0C4
S38510001D80030D0507090B052308E0072306E0082304E0092302E00A2300E006230B4901EBC000017A01290BD1417A01290AD05AB11846202100F0B8FE002008BD044808BD044808BD044808BD044808BD180200200200007001000079040000790300007008B505281DD8DFE800F0030D0507090B052308E0072306E0082304E0092302E058
S38510001E000A2300E006230A4A02EBC000027A012A09D1427A012A08D0184600F098FE002008BD044808BD044808BD044808BD00BF1802002002000070010000790400007908B5052813D8DFE800F0030D0507090B052008E0072006E0082004E0092002E00A2000E0062000F083FE002008BD014808BD00BF0300007908B5052813D8DFE81F
S38510001E8000F0030D0507090B052008E0072006E0082004E0092002E00A2000E0062000F075FE002008BD014808BD00BF030000790D4B03EBC0035B68052813D8DFE800F0030D0507090B052008E0072006E0082004E0092002E00A2000E006200122DA6000F062BE704700BF1802002084B010B503AC84E80E001A4B03EBC00043681A690E
S38510001F00110625D49DF819100398032902D1059CA0421FD3586004980329186022F4BF7208BF059822F0010208BF98600A439DF818009DF81A1042EA811200F0070142EAC10200F0080042EA00201861002002E0044800E00448BDE8104004B0704700BF1802002005000079090000702DE9F3413E4D06462B780C4693B93D4B6B6003F564
S38510001F808053EB6003F580536B6103F58053EB6103F580536B6203F58053EB6201232B70052E57D8DFE806F0031206090C0F0F2305270DE0112307270AE01223082707E01323092704E014230A2701E0102306274FEAC60805EB0802117A01293CD0002C3CD0217B24293BD8617B072938D8A17B012935D8012101FA03F34FF08040D0F81E
S3851000200024E052682EEA03034362002313616368D1601360234653F80C1B516093E803008DE8030094E80E003046FFF75FFF0646B8B923692BB9454401232B7200236B720FE022693846202100F0BCFD0028F2D0084E06E0084E04E0084E02E0084E00E0084E304602B0BDE8F08100BF180200200000014003000079020000700800007092
S38510002080030000700D00007073B506460C46052840D8DFE800F0030D0507090B052508E0072506E0082504E0092502E00A2500E006251E4B03EBC6031A7A012A2CD15B7A012B2BD064B3236953B3237B242B29D8637B072B26D8A37B012B23D823690BB304F10C0393E803008DE8030094E80E003046FFF7FBFEB0B93046FFF7D9FE22693D
S385100021002846202100F05EFD094B002814BF1846002008E0074806E0074804E0074802E0074800E0074802B070BD00BF1802002003000079020000700100007904000079030000700D000070036923F0800343F480430361036923F0070343F001030361036923F41C6343EAC101012301610360426002690369134343F0800303617047D8
S385100021800123C360704700BF80B500AF40F2C040C2F20000FF214FF4805201F09FFB00BF80BD80B500AF40F2C040C2F20000FF214FF4805201F092FB00BF80BD80B483B000AF4FF41043C4F202037B6000BF7B689B6803F08073002BF9D17A6845F6A343C3F67F2313647A6844F62073CAF2E31313647A684BF2C123C9F20863136400BF3F
S385100022007B689B6803F08073002BF9D100BF0C37BD465DF8047B704780B483B000AF4FF41043C4F202037B6000BF7B689B6803F08073002BF9D17B6800221A6400BF7B689B6803F08073002BF9D100BF0C37BD465DF8047B704780B485B000AF786039600D23C7F20003FB604FF41043C4F20203BB60BB6800225A6200BFBB689B6803F08D
S385100022808073002BF9D1BA681023C2F2000393603B681A68BB681A63BB687A681A60BB689B6843F00102BB689A6000BFBB689A680123C0F200131340002BF7D1BB6800225A623B681A687B681B689A4204D00823C8F20073FB6001E00023FB60BB689B6823F0704323F01003BA689360FB6818461437BD465DF8047B704780B584B000AFEA
S38510002300786039600D23C7F20003FB604FF41043C4F20203BB60BB6800225A6200BFBB689B6803F08073002BF9D1BB684FF000529A603B681A68BB681A633B685A68BB685A633B689A68BB689A633B68DA68BB68DA63BB687A681A60BB689B6843F00102BB689A6000BFBB689A680123C0F200131340002BF7D1BB6800225A627B68386811
S385100023801946102201F024FAF860FB68002B04D00923C8F20073FB6001E00023FB60BB689B6823F07042BB689A60FB6818461037BD4680BD80B485B000AF786039607B68FB60FB681A683B681A6000BF1437BD465DF8047B704780B489B000AF786039600D23C7F20003FB617B6823F47F6323F00F037B617A683B68134423F47F6323F00F
S385100024000F033B617B6823F47F6323F00F03FB604FF41043C4F20203BB60BB6800225A6200BFBB689B6803F08073002BF9D1BA684FF4AA43C2F20003936015E0BB687A691A60BB689B6843F00402BB689A6000BFBB689A680423C0F200131340002BF7D17B6903F580537B617A693B699A42E5D3BB689B6823F0704323F47F43BA6893608C
S385100024800023BB610FE0BB699B00FA6813441B68B3F1FF3F04D00B23C8F20073FB6108E0BB690133BB61BB69B3F5806FEBD30023FB61FB6918462437BD465DF8047B704780B58AB000AFF860B9607A600D23C7F200037B62FB683B6200233B617B68BB61BB687B61BB6903F00303002B04D00223C8F200737B625CE0FB6803F00F03002B28
S385100025001AD011E0386A7969FFF7A5FE78627B6A002B00D04DE07B6904337B613B6A04333B62BB69043BBB613B6A03F00F03002B02D0BB69002BE5D1BB691B093B610023FB6114E0386A7969FFF7D7FE78627B6A002B00D02DE03B6A10333B627B6910337B61BB69103BBB61FB690133FB61FA693B699A42E6D3BB699B083B610023FB61D9
S3851000258011E0386A7969FFF766FE78627B6A002B00D00EE03B6A04333B627B6904337B61FB690133FB61FA693B699A42E9D300237B627B6A18462837BD4680BD80B586B000AFF860B9607A600D23C7F200037B61BB68002B04D10323C7F200037B6114E0FA687B681A440023C1F210039A4204D90723C8F200737B6107E0FB68B868194626
S385100026007A6801F017F900237B617B6918461837BD4680BD80B58AB000AFF860B9607A600D23C7F200037B627B683B62BB68FB610023BB6100237B61BB68002B04D10323C7F200037B6264E0FB6803F00303002B04D00323C8F200737B625AE0FA687B681A440023C1F210039A4204D90723C8F200737B624DE0FA687B68134423F00303DC
S38510002680BB61FA687B681A44BB69D31A7B6107F1100318460021042201F020F97B69042B04D90623C7F200037B6232E07A687B69D31A3B62F868F9693A6AFFF701FF78627B6A002B00D024E0FA693B6A1344FB617B69002B1DD07B69C3F104033B6207F11003B86919460422FFF768FF78627B6A002B0ED107F110031846F9697A6901F0C7
S3851000270099F807F11003B86919460422FFF7D8FE78627B6A18462837BD4680BD80B58AB000AF78603960002387F827300D23C7F200033B6200233B610023FB600023BB6100237B617A683B681A440023C1F210039A4204D90723C8F200733B62C9E07B6803F00303002B04D00323C8F200733B62BFE07B68C3F30B037B617B6823F47F6302
S3851000278023F00F033B617B69002B35D040F2C040C2F20000FF214FF4805201F09FF87A683B69D31ABB61386940F2C041C2F20001BA69FFF703FF38623B6A002B00D098E038694FF48051FFF706FE38623B6A002B00D08EE0386940F2C041C2F200014FF48052FFF76DFE38623B6A002B00D080E0012387F8273002E0002387F827307A68BF
S385100028003B681344C3F30B037B617A683B68134423F47F6323F00F03FB60FA683B699A423AD07B69002B37D040F2C040C2F20000FF214FF4805201F051F87B69C3F58053BB617A683B681A44796940F2C043C2F200030B4410461946BA69FFF7AFFE38623B6A002B00D044E0F8684FF48051FFF7B2FD38623B6A002B00D03AE0F86840F299
S38510002880C041C2F200014FF48052FFF719FE38623B6A002B00D02CE0FA683B69D31A1B0BBB61BB69002B01D10123BB6197F82730012B04D13B6903F580537B6101E03B697B610023FB6110E078694FF48051FFF782FD38623B6A002B00D00AE07B6903F580537B61FB690133FB61FA69BB699A42EAD33B6A18462837BD4680BD80B483B0D6
S3851000290000AF0D23C7F200037B604FF41043C4F202033B603B6800225A6200BF3B689B6803F08073002BF9D13A684FF42A43C2F2000393603B684FF080521A603B689B6843F002023B689A6000BF3B689A680223C0F200131340002BF7D13B689B6823F0704323F47F433A68936000237B607B6818460C37BD465DF8047B704780B586B091
S3851000298000AFB9607A603B600346FB730D23C7F200037B6100233B617B68002B04D10323C7F200037B614DE0BB6803F00303002B04D00323C8F200737B6143E03B6803F00703002B04D00223C8F200737B6139E0FB7B012B0CD1BA6840F6FF73C1F210039A4205D94FF40053C1F210033B6114E0FB7B002B0CD1BA6840F6FF73C1F2100362
S38510002A009A4205D84FF48053C1F210033B6104E00223C7F200037B6114E0BA683B681A443B699A4204D90723C8F200737B6109E0FFF7C4FBB86879683A68FFF741FD7861FFF7EAFB7B6918461837BD4680BD80B586B000AFB9607A603B600346FB730D23C7F200037B6100233B617B68002B04D10323C7F200037B6150E0BA684FF6FF733D
S38510002A80C1F20F039A4208D9BA683B681A444FF40053C1F210039A4204D90423C7F200037B613BE0FB7B012B0CD1BA6840F6FF73C1F210039A4205D94FF40053C1F210033B6114E0FB7B002B0CD1BA6840F6FF73C1F210039A4205D84FF48053C1F210033B6104E00223C7F200037B6116E0BA683B681A443B699A4204D90723C8F20073CA
S38510002B007B610BE0FFF75AFBBB68786819463A6800F090FEFFF780FB00237B617B6918461837BD4680BD00BF4FF0E02310B5D3F8084D3CB1D3F8083D00F1100442F0010243F8242000F1E02080F8001410BD4FF0E023D3F8082D3AB1044AD3F8083D103042F0010243F82020704700BF470000103F280AD84209012300F01F0003FA00F088
S38510002B8040324FF0E02343F8220070473F280AD84209012300F01F0003FA00F060324FF0E02343F8220070473F280AD84209012300F01F0003FA00F0A0324FF0E02343F822007047402810B5044606D8FFF7ACFF2046FFF7CDFF002010BD014810BD00BF02000070EFF3108072B67047EFF3108062B670474FF080420028506005DB034B94
S38510002C005168084201D0013BFAD17047A186010080014FF08043986070474FF080439B68C3F3821303707047072827D84FF080431A69194642F001021A610A694FF0804302F00302032AF8D15A69194642F001025A614A694FF0804302F00302032AF8D19A6822F47C629A609A6842F4007242EA801098609A689204FCD501E00148704768
S38510002C80002070470200007050B14FF080439B68044AC3F3821342FA03F30360002070470148704700F36F0603000070FFF7ECBF08B50146FFF7E8FF10B90B685B080B6008BD4FF00040FFF795BF4FF08043596A054A0A435A625968044A0A435A60DA6842F00302DA60FEE7FFFEFF01FDFFFD064FF08043DA6822F0030242F01102DA60D4
S38510002D0070474FF080435A6922F001025A61DA6822F0030242F01202DA6000BF70474FF080431A6842F010021A6070474FF080431A6822F010021A60704700BF30B40346C0B142F201354AF689344DF6FE4145F276420020C6F24575CEF6CD74C9F6BA01C1F232021D605C609960DA605861186130BC70476FF00500FAE700BF2DE9F04F09
S38510002D800E4683B01546044620B96FF0050003B0BDE8F08FD1F1010338BF0023002A08BF43F00103FBB90069D20011188A422161C0F3C500636901D901336361C0F1400703EB5573BD42636110D243F6350818340194C1F200080027019BEA1B1818F119C0470020D3E76FF00100D0E704F1180243F635081018019231463A46C1F20008A8
S38510002E0042F6097AC047C1F2000A20460199D04707F13F0C65452ED906EB0709C7EB050E49462046AEF1400BD04707F17F0140378D42CBF3801B09F140091CD9BBF1000F09D0403749462046D04707F13F0C654509F140090FD9494609F1400B2046D047403720465946D04707F17F00403785420BF14009EFD80020AEE700BF2DE9F04712
S38510002E8092B012AD6FF07F0305F8483D43F6DD0406460F46C1F20004681C00213F22A04726B96FF0060012B0BDE8F08747B30DF1400943F635080822C1F2000807F110014846C0473A6942F67D5AC2F3C502372A94BFC2F13802C2F17802C1F2000A69463846D047494608223846D047394610223046C047384600215822A0470020D2E74B
S38510002F006FF00500CFE700BF2DE9F00F0B68A0B00193019C4368C6684AF278470568CDF26A77E21926EA0309866802EB05084A6806EA030B029249EA0B0A08EB0A0C029C4BF2567703EB7C6CC568CEF6C707E21926EA0C0B0CEA03094BEA090457198E683A1947F2DB050CEB32528768C2F22045741923EA020A02EA0C0803964AEA08056C
S38510002F80E6197519CC684CF6EE6702EBF535CCF2BD17E6192CEA050B05EA020904944BEA0907F618F4190E6940F6AF7705EBB424CFF27C5706EB070A22EA040804EA050B05960AEB0C0948EA0B064F6909EB060C4CF22A6804EB7C6CC4F2877825EA0C0B0CEA040907EB080A06974BEA09060AEB0207BA1944F213688F690CEB3252CAF697
S38510003000300824EA020B02EA0C0907EB080A07974BEA09060AEB0507BD1949F20158CE6902EBF535CFF6465806EB08072CEA050A05EA020B4AEA0B093C1904EB09080F6A49F6D80B05EBB824C6F6801B089722EA040A07EB0B0904EA05074AEA070809EB0C0B4F6A0BEB080C4FF2AF7B04EB7C6CC8F6443B099725EA0C0A07EB0B090CEA5E
S3851000308004074AEA070809EB020B8F6A0BEB08020CEB3252A7F5244B0A9724EA020902EA0C0AABF14F0749EA0A0807EB050B0BEB0805CF6A4DF2BE7B02EBF535C8F65C1B2CEA050A0B9707EB0B0905EA02074AEA070809EB040B0F6B0BEB080441F2221B05EBB424C6F6903B0C9722EA040A07EB0B0904EA05074AEA070809EB0C0B4F6BEC
S385100031000BEB080C47F2931B04EB7C6CCFF6985B0D9725EA0C0A07EB0B090CEA04074AEA070809EB020B0BEB08020CEB32528F6B44F28E3A6FEA0208CAF2796A07EB0A0902EA0C0B08EA040A0E974D444AEA0B0705EB070A40F6210BCD6B02EBFA316FEA010AC4F6B41B05EB0B0901EA02070AEA0C0B4BEA070B4C44029F5C4442F2625902
S3851000318001EBB424CFF21E6907EB090B01EA080704EA0209DC4449EA070B0CEB0B08079F4BF2403B04EBF868CCF2400B08EA010907EB0B0C04EA0A0B0CEB020749EA0B0A07EB0A0B0B9A45F6512708EBFB5AC2F25E670AEA040928EA040B02EB070C0CEB010749EA0B02B918019F4CF2AA720AEBB14CCEF6B6120CEA08092AEA080BB91876
S385100032000F1949EA0B02B918069C41F25D070CEB3131CDF22F67E21901EA0A092CEA0A0B49EA0B0402EB08073A190A9F41F2534401EBF262C0F2442402EA0C0921EA0C0B3C1949EA0B0804EB0A0707EB08044EF2816B02EBF454CDF6A10B04EA010A22EA010705EB0B094AEA070809EB0C0B0BEB080C059F4FF6C83B04EBBC4CCEF2D37BB0
S385100032800CEA020A07EB0B0924EA02074AEA070809EB010B0BEB0801099F4CF6E65B0CEB3131C2F2E11B01EA040A07EB0B092CEA04074AEA070809EB020B0BEB08020E9F40F2D67B01EBF262CCF2373B02EA0C0A07EB0B0921EA0C074AEA070809EB040B0BEB0804049F40F6875B02EBF454CFF2D54B04EA010A07EB0B0922EA01074AEA99
S38510003300070809EB0C0B0BEB080C089F41F2ED4B04EBBC4CC4F25A5B0CEA020A07EB0B0924EA02074AEA070809EB010B0BEB08010D9F4EF6051B0CEB3131CAF6E31B01EA040A2CEA040807EB0B0909EB020B4AEA08090BEB0902039F4AF2F83801EBF262CFF6EF4802EA0C0A21EA0C0B07EB080909EB04074AEA0B0807EB080440F2D92BC4
S3851000338002EBF454C6F26F7B04EA010A22EA010706EB0B094AEA070809EB0C0B0BEB080C0C9F44F68A4904EBBC4CC8F62A5907EB09080CEA020A24EA020B4AEA0B09069F414443F6421B01EB0908CFF6FA7B0CEB38388CEA0409BB4489EA08015A4451184FF28167089AC8F2717708EB317188EA0C0902EB070A0AEB040789EA010A07EBC4
S385100034000A0446F222120B9FC6F69D5201EB745481EA0809BA1802EB0C0789EA040207EB020C43F60C0A0E9FCFF6E55A04EB3C4284EA010907EB0A0CE04489EA020A029F4EF6442908EB0A0CCAF2BE4902EB7C2C07EB090A82EA040787EA0C09514401EB09084CF6A9770599C4F6DE370CEB387801EB070A8CEA0209544489EA080144F6D3
S3851000348060376118CFF2BB6708EB715188EA0C09F41989EA010AA71807EB0A024BF670440A9FCBF6BF6401EB324281EA08093C1904EB0C0789EA020407EB040C47F6C66A0D9FC2F69B0A02EB7C2482EA010907EB0A0CE04489EA040A019F42F2FA7908EB0A0CCEF6A12904EB3C7C84EA020807EB090A0AEB010788EA0C0907EB090143F232
S385100035008508049FCDF2EF480CEB715107EB080A8CEA040989EA0108524402EB080A41F60557079AC0F2884701EB3A4881EA0C0902EB070A544489EA0802A2184DF23907099CCDF6D41708EB722288EA010904EB070A0AEB0C0789EA020A07EB0A0C49F6E5140C9FCEF2DB6402EB3C7C3C1982EA0809611889EA0C0947F6F8474944C1F6D0
S38510003580A2770CEB715405EB070A8CEA02076740D04408EB070145F2656A039FCCF2AC4A04EB314184EA0C08BA44924488EA01070AEB070242F24428019F01EB72226FEA040ACFF22948B84442EA0A0A08EB0C078AEA010807EB080C4FF6977702EBBC6CC4F22A376FEA0108F6194CEA080888EA02073619F4190E9F42F2A7360CEBB45437
S385100036006FEA0208CAF69436BE1944EA0807761887EA0C017118069F4AF2390604EB71416FEA0C08CFF69346BE1941EA0807B61887EA0402B2180C9F45F6C31601EBF2226FEA0408C6F25B56BE1942EA080787EA0108664406EB080C049F4CF6924602EBBC6C6FEA0108C8F60C76BE194CEA0807361987EA020434190A9F4FF27D460CEBA3
S38510003680B4546FEA0208CFF6EF76BE1944EA0807761887EA0C017118029F45F6D15604EB71416FEA0C08C8F28456BE1941EA0807B61887EA0402B218089F47F64F6601EBF2226FEA0408C6F6A876BE1942EA0807664487EA010CB4444EF2E06602EBBC6CCF43CFF62C66AD194CEA070787EA02062D19AC19079F44F214350CEBB454D643D8
S38510003700CAF201357D1944EA060686EA0C076D18E9190D9F41F2A11504EB71416FEA0C06C4F608657D1941EA060686EA0407AD18EA19059F47F6826501EBF222E643CFF253757D1942EA060686EA0107654405EB070C0B9F4FF2352502EBBC6CCE43CBF63A557D194CEA060686EA02072D19EC19039F4DF2BB250CEBB454D643C2F6D7253F
S385100037807D1944EA0607691887EA0C068F1904EB77414DF29135099FCEF686356FEA0C067D1941EA06066640AA1885689219CE1806EBF22369180668C5680CEB06022C19C46002604360816020B0BDE8F00F7047032A70B412D940EA01039B070FD10C46034621461846043404330D680668AE4204D1043A1846032A2146F2D8C2B105785D
S385100038000C78A54204BF02F1FF32002306D00CE010F8015F11F8014FA54206D1934203F10103F5D1002070BC7047281B70BC70471046F8E70F2AF0B445D940EA01039B0745D1A2F110070C4603463F0900EB0716103625681033103443F8105C54F80C5C43F80C5C54F8085C43F8085C54F8045C43F8045CB342ECD17B1C02F00F0CBCF124
S38510003880030F4FEA03131944034422D90E461D46644656F8047B043C032C45F8047BF8D8ACF1040402F0030224F0030404342344214432B10A4411F8014B914203F8014BF9D1F0BC70470346002AF3D1F9E70346F0E76246002AEDD1F3E700BF8307F0B448D0541E002A43D0CDB2034602E0002C3ED0144603F8015B13F0030F04F1FF32DC
S38510003900F5D1032C2DD9CDB20F2C45EA052545EA054518D9A4F1100703F110061A463F0906EB07161560103242F80C5C42F8085C42F8045CB242F5D104F00F040137032C03EB07130DD91E462246043A46F8045B032AFAD8221F04F0030422F00302043213442CB1C9B21C4403F8011BA342FBD1F0BC704714460346C3E700BF80F0004081
S3851000398002E000BF81F0004142001FBF5FEA410392EA030F7FEA226C7FEA236C6AD04FEA1262D2EB1363C1BFD218414048404140B8BF5B42192B88BF704710F0004F40F4000020F07F4018BF404211F0004F41F4000121F07F4118BF494292EA030F3FD0A2F1010241FA03FC10EB0C00C3F1200301FA03F100F0004302D5494260EB400012
S38510003A00B0F5000F13D3B0F1807F06D340084FEA310102F10102FE2A51D2B1F1004F40EBC25008BF20F0010040EA03007047490040EB000010F4000FA2F10102EDD1B0FA80FCACF1080CB2EB0C0200FA0CF0AABF00EBC25052421843BCBFD0401843704792F0000F81F4000106BF80F400000132013BB5E74FEA41037FEA226C18BF7FEAFB
S38510003A80236C21D092EA030F04D092F0000F08BF0846704790EA010F1CBF0020704712F07F4F04D1400028BF40F00040704712F100723CBF00F50000704700F0004343F0FE4040F4000070477FEA226216BF08467FEA23630146420206BF5FEA412390EA010F40F4800070474FF0000304E000BF10F0004348BF40425FEA000C08BF704722
S38510003B0043F0964301464FF000001CE050EA010208BF70474FF000030AE000BF50EA010208BF704711F0004302D5404261EB41015FEA010C02BF84460146002043F0B64308BFA3F18053A3F50003BCFA8CF2083AA3EBC25310DB01FA02FC634400FA02FCC2F12002BCF1004F20FA02F243EB020008BF20F00100704702F1200201FA02FC90
S38510003B80C2F1200250EA4C0021FA02F243EB020008BF20EADC7070474FF0FF0C1CEAD0521EBF1CEAD15392EA0C0F93EA0C0F6FD01A4480EA010C400218BF5FEA41211ED04FF0006343EA501043EA5111A0FB01310CF00040B1F5000F3EBF490041EAD3715B0040EA010062F17F02FD2A1DD8B3F1004F40EBC25008BF20F00100704790F0ED
S38510003C00000F0CF0004C08BF49024CEA502040EA51207F3AC2BFD2F1FF0340EAC250704740F400004FF00003013A5DDC12F1190FDCBF00F000407047C2F10002410021FA02F1C2F1200200FA02FC5FEA310040F1000053EA4C0308BF20EADC70704792F0000F00F0004C02BF400010F4000F013AF9D040EA0C0093F0000F01F0004C02BF74
S38510003C80490011F4000F013BF9D041EA0C018FE70CEAD15392EA0C0F18BF93EA0C0F0AD030F0004C18BF31F0004CD8D180EA010000F00040704790F0000F17BF90F0004F084691F0000F91F0004F14D092EA0C0F01D142020FD193EA0C0F03D14B0218BF084608D180EA010000F0004040F0FE4040F40000704740F0FE4040F44000704762
S38510003D004FF0FF0C1CEAD0521EBF1CEAD15392EA0C0F93EA0C0F69D0A2EB030280EA010C49024FEA402037D04FF0805343EA111143EA10130CF000408B4238BF5B0042F17D024FF4000C8B4224BF5B1A40EA0C00B3EB510F24BFA3EB510340EA5C00B3EB910F24BFA3EB910340EA9C00B3EBD10F24BFA3EBD10340EADC001B0118BF5FEA99
S38510003D801C1CE0D1FD2A3FF650AF8B4240EBC25008BF20F0010070470CF0004C4CEA50207F32C2BFD2F1FF0340EAC250704740F400004FF00003013A37E792F0000F00F0004C02BF400010F4000F013AF9D040EA0C0093F0000F01F0004C02BF490011F4000F013BF9D041EA0C0195E70CEAD15392EA0C0F08D142027FF47DAF93EA0C0F63
S38510003E007FF470AF084676E793EA0C0F04D14B023FF44CAF08466EE730F0004C18BF31F0004CCAD130F000427FF45CAF31F000437FF43CAF5FE700BF4FEA4002B2F1FE4F0FD34FF09E03B3EB12620DD94FEA002343F0004310F0004F23FA02F018BF404270474FF00000704712F1610F01D1420205D110F0004008BF6FF0004070474FF01C
S38510003E8000007047303132333435363738394142434445460000070E091C1B1215383F363124232A2D70777E796C6B6265484F464154535A5DE0E7EEE9FCFBF2F5D8DFD6D1C4C3CACD90979E998C8B8285A8AFA6A1B4B3BABDC7C0C9CEDBDCD5D2FFF8F1F6E3E4EDEAB7B0B9BEABACA5A28F88818693949D9A2720292E3B3C35321F1811BF
S38510003F001603040D0A5750595E4B4C45426F68616673747D7A898E878095929B9CB1B6BFB8ADAAA3A4F9FEF7F0E5E2EBECC1C6CFC8DDDAD3D4696E676075727B7C51565F584D4A4344191E171005020B0C21262F283D3A33344E49404752555C5B7671787F6A6D64633E39303722252C2B0601080F1A1D1413AEA9A0A7B2B5BCBB969198F4
S38510003F809F8A8D8483DED9D0D7C2C5CCCBE6E1E8EFFAFDF4F300000000000000320000000100000028000000020000001E0000000300000014000000040000001400000053746172740D0A0046696E6973686564210D0A000D0A0000524620424C2056322E302E34204A616E20203420323031372030393A34373A30300D0A0043757272EE
S38510004000656E74207274762076616C203D2000000D0A0000446174653A200000682000006D2000007320000056322E302E34204A616E20203420323031372030393A34373A3030000000004000040040000C0040001000400030004000400040FFFFFFFF0004004000600040008000400090004000A0004000C00040000001400010014057
S385100040800020014000300140008001400090014000A001400000024000100240008002400090024000A0024000B0024000C00240000003400010034000200340004003400080034000000B4000500B4000E000E090ED00E0B8410010684100101C410010124100100A41001002410010000000003201002075010020A12000000000020039
S385100041000200080323003000320008032300300031000A0342004500540041004C03430044004300410043004D002000550053004200200054006F002000520053002D00320033003200200045006D0075006C006100740069006F006E00200044006500760069006300650050034D006100780069006D00200049006E00740065006700DB
S385100041807200610074006500640043006900720063007500690074002000440065007300690067006E005000760074002E0020004C00740064002E0004030904451F07D2D44100100B1F0596554200100B1F05D2554200107E21227E247E7E60287E7E2B7E2D2E7E307E7E337E35367E7E393A7E3C7E7E3F407E7E437E45467E7E494A7E42
S385100042004C7E7E4F7E51527E547E7E57587E7E5B7E5D5E7E207E7E237E25267E7E292A7E2C7E7E2F7E31327E347E7E37387E7E3B7E3D3E7E7E41427E447E7E47487E7E4B7E4D4E7E507E7E537E55567E7E595A7E5C7E7E5F007E31327E347E7E37387E7E3B7E3D3E7E307E7E337E35367E7E393A7E3C7E7E3F000000000000000002536523
S38510004280636F6E64426F6F744C6F616465720100006000404440001012010002020000206A0B25060001010200020902430002010440FA090400000102020100052400100104240202052406000105240100010705810308000209040100020A00000007058202200000070503024000000902430002020540FA0904000001020201000546
S37D100043002400100104240202052406000105240100010705810308000209040100020A00000007058202200000070503024000000105000001000000C7C3514A0EF5C323B59ECC16C531F98FECB8F1FD4F5B95DDC3C878D075CAC609E7479524A00A303D5BFA33E9E16EAD767D5045968F40DAC748D75820C2CC3CF716
S70510000000EA
